{
  "_format": "hh-sol-artifact-1",
  "contractName": "TicTacToe",
  "sourceName": "contracts/TicTacToe.sol",
  "abi": [
    {
      "inputs": [],
      "stateMutability": "nonpayable",
      "type": "constructor"
    },
    {
      "inputs": [
        {
          "internalType": "uint256",
          "name": "",
          "type": "uint256"
        }
      ],
      "name": "board",
      "outputs": [
        {
          "internalType": "uint8",
          "name": "",
          "type": "uint8"
        }
      ],
      "stateMutability": "view",
      "type": "function"
    },
    {
      "inputs": [],
      "name": "currentPlayer",
      "outputs": [
        {
          "internalType": "address",
          "name": "",
          "type": "address"
        }
      ],
      "stateMutability": "view",
      "type": "function"
    },
    {
      "inputs": [],
      "name": "gameActive",
      "outputs": [
        {
          "internalType": "bool",
          "name": "",
          "type": "bool"
        }
      ],
      "stateMutability": "view",
      "type": "function"
    },
    {
      "inputs": [],
      "name": "getBoard",
      "outputs": [
        {
          "internalType": "uint8[9]",
          "name": "",
          "type": "uint8[9]"
        }
      ],
      "stateMutability": "view",
      "type": "function"
    },
    {
      "inputs": [],
      "name": "joinGame",
      "outputs": [],
      "stateMutability": "nonpayable",
      "type": "function"
    },
    {
      "inputs": [
        {
          "internalType": "uint8",
          "name": "index",
          "type": "uint8"
        }
      ],
      "name": "makeMove",
      "outputs": [],
      "stateMutability": "nonpayable",
      "type": "function"
    },
    {
      "inputs": [],
      "name": "player1",
      "outputs": [
        {
          "internalType": "address",
          "name": "",
          "type": "address"
        }
      ],
      "stateMutability": "view",
      "type": "function"
    },
    {
      "inputs": [],
      "name": "player2",
      "outputs": [
        {
          "internalType": "address",
          "name": "",
          "type": "address"
        }
      ],
      "stateMutability": "view",
      "type": "function"
    },
    {
      "inputs": [],
      "name": "resetGame",
      "outputs": [],
      "stateMutability": "nonpayable",
      "type": "function"
    },
    {
      "inputs": [],
      "name": "winner",
      "outputs": [
        {
          "internalType": "address",
          "name": "",
          "type": "address"
        }
      ],
      "stateMutability": "view",
      "type": "function"
    }
  ],
  "bytecode": "0x608060405234801561001057600080fd5b50336000806101000a81548173ffffffffffffffffffffffffffffffffffffffff021916908373ffffffffffffffffffffffffffffffffffffffff1602179055506001600460006101000a81548160ff02191690831515021790555060008054906101000a900473ffffffffffffffffffffffffffffffffffffffff16600260006101000a81548173ffffffffffffffffffffffffffffffffffffffff021916908373ffffffffffffffffffffffffffffffffffffffff16021790555061159c806100dc6000396000f3fe608060405234801561001057600080fd5b506004361061009e5760003560e01c8063bb47221911610066578063bb47221914610149578063d30895e414610153578063d4f77b1c14610171578063dfbf53ae1461017b578063f020044f146101995761009e565b806328ed6e3f146100a35780633264a34b146100d35780634404a438146100f157806359a5f12d1461010f578063650271d21461012d575b600080fd5b6100bd60048036038101906100b89190610f58565b6101b7565b6040516100ca9190610fa1565b60405180910390f35b6100db6101e1565b6040516100e89190611067565b60405180910390f35b6100f9610252565b60405161010691906110c4565b60405180910390f35b610117610278565b60405161012491906110c4565b60405180910390f35b6101476004803603810190610142919061110b565b61029e565b005b6101516106c5565b005b61015b610917565b60405161016891906110c4565b60405180910390f35b61017961093b565b005b610183610a9d565b60405161019091906110c4565b60405180910390f35b6101a1610ac3565b6040516101ae9190611153565b60405180910390f35b600381600981106101c757600080fd5b60209182820401919006915054906101000a900460ff1681565b6101e9610efa565b6003600980602002604051908101604052809291908260098015610248576020028201916000905b82829054906101000a900460ff1660ff16815260200190600101906020826000010492830192600103820291508084116102115790505b5050505050905090565b600260009054906101000a900473ffffffffffffffffffffffffffffffffffffffff1681565b600160009054906101000a900473ffffffffffffffffffffffffffffffffffffffff1681565b60008054906101000a900473ffffffffffffffffffffffffffffffffffffffff1673ffffffffffffffffffffffffffffffffffffffff163373ffffffffffffffffffffffffffffffffffffffff1614806103455750600160009054906101000a900473ffffffffffffffffffffffffffffffffffffffff1673ffffffffffffffffffffffffffffffffffffffff163373ffffffffffffffffffffffffffffffffffffffff16145b610384576040517f08c379a000000000000000000000000000000000000000000000000000000000815260040161037b906111cb565b60405180910390fd5b600260009054906101000a900473ffffffffffffffffffffffffffffffffffffffff1673ffffffffffffffffffffffffffffffffffffffff163373ffffffffffffffffffffffffffffffffffffffff1614610414576040517f08c379a000000000000000000000000000000000000000000000000000000000815260040161040b90611237565b60405180910390fd5b600460009054906101000a900460ff16610463576040517f08c379a000000000000000000000000000000000000000000000000000000000815260040161045a906112a3565b60405180910390fd5b60008160ff161015801561047a575060098160ff16105b6104b9576040517f08c379a00000000000000000000000000000000000000000000000000000000081526004016104b09061130f565b60405180910390fd5b600060038260ff16600981106104d2576104d161132f565b5b602091828204019190069054906101000a900460ff1660ff161461052b576040517f08c379a0000000000000000000000000000000000000000000000000000000008152600401610522906113aa565b60405180910390fd5b60008054906101000a900473ffffffffffffffffffffffffffffffffffffffff1673ffffffffffffffffffffffffffffffffffffffff163373ffffffffffffffffffffffffffffffffffffffff160361061f57600160038260ff16600981106105975761059661132f565b5b602091828204019190066101000a81548160ff021916908360ff160217905550600160009054906101000a900473ffffffffffffffffffffffffffffffffffffffff16600260006101000a81548173ffffffffffffffffffffffffffffffffffffffff021916908373ffffffffffffffffffffffffffffffffffffffff1602179055506106ba565b600260038260ff16600981106106385761063761132f565b5b602091828204019190066101000a81548160ff021916908360ff16021790555060008054906101000a900473ffffffffffffffffffffffffffffffffffffffff16600260006101000a81548173ffffffffffffffffffffffffffffffffffffffff021916908373ffffffffffffffffffffffffffffffffffffffff1602179055505b6106c2610ad6565b50565b60008054906101000a900473ffffffffffffffffffffffffffffffffffffffff1673ffffffffffffffffffffffffffffffffffffffff163373ffffffffffffffffffffffffffffffffffffffff16148061076c5750600160009054906101000a900473ffffffffffffffffffffffffffffffffffffffff1673ffffffffffffffffffffffffffffffffffffffff163373ffffffffffffffffffffffffffffffffffffffff16145b6107ab576040517f08c379a00000000000000000000000000000000000000000000000000000000081526004016107a2906111cb565b60405180910390fd5b600460009054906101000a900460ff16156107fb576040517f08c379a00000000000000000000000000000000000000000000000000000000081526004016107f290611416565b60405180910390fd5b60005b60098160ff16101561085657600060038260ff16600981106108235761082261132f565b5b602091828204019190066101000a81548160ff021916908360ff160217905550808061084e90611465565b9150506107fe565b5060008054906101000a900473ffffffffffffffffffffffffffffffffffffffff16600260006101000a81548173ffffffffffffffffffffffffffffffffffffffff021916908373ffffffffffffffffffffffffffffffffffffffff1602179055506001600460006101000a81548160ff0219169083151502179055506000600460016101000a81548173ffffffffffffffffffffffffffffffffffffffff021916908373ffffffffffffffffffffffffffffffffffffffff160217905550565b60008054906101000a900473ffffffffffffffffffffffffffffffffffffffff1681565b600073ffffffffffffffffffffffffffffffffffffffff16600160009054906101000a900473ffffffffffffffffffffffffffffffffffffffff1673ffffffffffffffffffffffffffffffffffffffff16146109cc576040517f08c379a00000000000000000000000000000000000000000000000000000000081526004016109c3906114da565b60405180910390fd5b60008054906101000a900473ffffffffffffffffffffffffffffffffffffffff1673ffffffffffffffffffffffffffffffffffffffff163373ffffffffffffffffffffffffffffffffffffffff1603610a5a576040517f08c379a0000000000000000000000000000000000000000000000000000000008152600401610a5190611546565b60405180910390fd5b33600160006101000a81548173ffffffffffffffffffffffffffffffffffffffff021916908373ffffffffffffffffffffffffffffffffffffffff160217905550565b600460019054906101000a900473ffffffffffffffffffffffffffffffffffffffff1681565b600460009054906101000a900460ff1681565b60006040518061010001604052806040518060600160405280600060ff168152602001600160ff168152602001600260ff1681525081526020016040518060600160405280600360ff168152602001600460ff168152602001600560ff1681525081526020016040518060600160405280600660ff168152602001600760ff168152602001600860ff1681525081526020016040518060600160405280600060ff168152602001600360ff168152602001600660ff1681525081526020016040518060600160405280600160ff168152602001600460ff168152602001600760ff1681525081526020016040518060600160405280600260ff168152602001600560ff168152602001600860ff1681525081526020016040518060600160405280600060ff168152602001600460ff168152602001600860ff1681525081526020016040518060600160405280600260ff168152602001600460ff168152602001600660ff16815250815250905060005b60088160ff161015610ef6576000828260ff1660088110610c6b57610c6a61132f565b5b6020020151600060038110610c8357610c8261132f565b5b602002015190506000838360ff1660088110610ca257610ca161132f565b5b6020020151600160038110610cba57610cb961132f565b5b602002015190506000848460ff1660088110610cd957610cd861132f565b5b6020020151600260038110610cf157610cf061132f565b5b60200201519050600060038460ff1660098110610d1157610d1061132f565b5b602091828204019190069054906101000a900460ff1660ff1614158015610d95575060038260ff1660098110610d4a57610d4961132f565b5b602091828204019190069054906101000a900460ff1660ff1660038460ff1660098110610d7a57610d7961132f565b5b602091828204019190069054906101000a900460ff1660ff16145b8015610dfe575060038160ff1660098110610db357610db261132f565b5b602091828204019190069054906101000a900460ff1660ff1660038460ff1660098110610de357610de261132f565b5b602091828204019190069054906101000a900460ff1660ff16145b15610ee0576000600460006101000a81548160ff021916908315150217905550600160038460ff1660098110610e3757610e3661132f565b5b602091828204019190069054906101000a900460ff1660ff1614610e7d57600160009054906101000a900473ffffffffffffffffffffffffffffffffffffffff16610e9f565b60008054906101000a900473ffffffffffffffffffffffffffffffffffffffff165b600460016101000a81548173ffffffffffffffffffffffffffffffffffffffff021916908373ffffffffffffffffffffffffffffffffffffffff1602179055505b5050508080610eee90611465565b915050610c47565b5050565b604051806101200160405280600990602082028036833780820191505090505090565b600080fd5b6000819050919050565b610f3581610f22565b8114610f4057600080fd5b50565b600081359050610f5281610f2c565b92915050565b600060208284031215610f6e57610f6d610f1d565b5b6000610f7c84828501610f43565b91505092915050565b600060ff82169050919050565b610f9b81610f85565b82525050565b6000602082019050610fb66000830184610f92565b92915050565b600060099050919050565b600081905092915050565b6000819050919050565b610fe581610f85565b82525050565b6000610ff78383610fdc565b60208301905092915050565b6000602082019050919050565b61101981610fbc565b6110238184610fc7565b925061102e82610fd2565b8060005b8381101561105f5781516110468782610feb565b965061105183611003565b925050600181019050611032565b505050505050565b60006101208201905061107d6000830184611010565b92915050565b600073ffffffffffffffffffffffffffffffffffffffff82169050919050565b60006110ae82611083565b9050919050565b6110be816110a3565b82525050565b60006020820190506110d960008301846110b5565b92915050565b6110e881610f85565b81146110f357600080fd5b50565b600081359050611105816110df565b92915050565b60006020828403121561112157611120610f1d565b5b600061112f848285016110f6565b91505092915050565b60008115159050919050565b61114d81611138565b82525050565b60006020820190506111686000830184611144565b92915050565b600082825260208201905092915050565b7f4e6f74206120706c617965720000000000000000000000000000000000000000600082015250565b60006111b5600c8361116e565b91506111c08261117f565b602082019050919050565b600060208201905081810360008301526111e4816111a8565b9050919050565b7f4e6f7420796f7572207475726e00000000000000000000000000000000000000600082015250565b6000611221600d8361116e565b915061122c826111eb565b602082019050919050565b6000602082019050818103600083015261125081611214565b9050919050565b7f47616d65206f7665720000000000000000000000000000000000000000000000600082015250565b600061128d60098361116e565b915061129882611257565b602082019050919050565b600060208201905081810360008301526112bc81611280565b9050919050565b7f496e76616c6964206d6f76650000000000000000000000000000000000000000600082015250565b60006112f9600c8361116e565b9150611304826112c3565b602082019050919050565b60006020820190508181036000830152611328816112ec565b9050919050565b7f4e487b7100000000000000000000000000000000000000000000000000000000600052603260045260246000fd5b7f43656c6c206f6363757069656400000000000000000000000000000000000000600082015250565b6000611394600d8361116e565b915061139f8261135e565b602082019050919050565b600060208201905081810360008301526113c381611387565b9050919050565b7f47616d65207374696c6c20616374697665000000000000000000000000000000600082015250565b600061140060118361116e565b915061140b826113ca565b602082019050919050565b6000602082019050818103600083015261142f816113f3565b9050919050565b7f4e487b7100000000000000000000000000000000000000000000000000000000600052601160045260246000fd5b600061147082610f85565b915060ff820361148357611482611436565b5b600182019050919050565b7f47616d6520616c72656164792066756c6c000000000000000000000000000000600082015250565b60006114c460118361116e565b91506114cf8261148e565b602082019050919050565b600060208201905081810360008301526114f3816114b7565b9050919050565b7f506c61796572312063616e6e6f74206a6f696e20616761696e00000000000000600082015250565b600061153060198361116e565b915061153b826114fa565b602082019050919050565b6000602082019050818103600083015261155f81611523565b905091905056fea264697066735822122087df35172c4d2dae7a46ec8fa25093443e53c56bf7a46f93ccd628ea490adad864736f6c63430008120033",
  "linkReferences": {},
  "deployedLinkReferences": {}
}