{
  "_format": "hh-sol-artifact-1",
  "contractName": "TicTacToe",
  "sourceName": "contracts/TicTacToe.sol",
  "abi": [
    {
      "inputs": [],
      "stateMutability": "nonpayable",
      "type": "constructor"
    },
    {
      "inputs": [
        {
          "internalType": "uint256",
          "name": "",
          "type": "uint256"
        }
      ],
      "name": "board",
      "outputs": [
        {
          "internalType": "enum TicTacToe.Player",
          "name": "",
          "type": "uint8"
        }
      ],
      "stateMutability": "view",
      "type": "function"
    },
    {
      "inputs": [],
      "name": "currentPlayer",
      "outputs": [
        {
          "internalType": "enum TicTacToe.Player",
          "name": "",
          "type": "uint8"
        }
      ],
      "stateMutability": "view",
      "type": "function"
    },
    {
      "inputs": [],
      "name": "gameActive",
      "outputs": [
        {
          "internalType": "bool",
          "name": "",
          "type": "bool"
        }
      ],
      "stateMutability": "view",
      "type": "function"
    },
    {
      "inputs": [],
      "name": "joinGame",
      "outputs": [],
      "stateMutability": "nonpayable",
      "type": "function"
    },
    {
      "inputs": [
        {
          "internalType": "uint8",
          "name": "index",
          "type": "uint8"
        }
      ],
      "name": "makeMove",
      "outputs": [],
      "stateMutability": "nonpayable",
      "type": "function"
    },
    {
      "inputs": [],
      "name": "playerO",
      "outputs": [
        {
          "internalType": "address",
          "name": "",
          "type": "address"
        }
      ],
      "stateMutability": "view",
      "type": "function"
    },
    {
      "inputs": [],
      "name": "playerX",
      "outputs": [
        {
          "internalType": "address",
          "name": "",
          "type": "address"
        }
      ],
      "stateMutability": "view",
      "type": "function"
    }
  ],
  "bytecode": "0x608060405234801561001057600080fd5b506001600260156101000a81548160ff0219169083151502179055506001600260146101000a81548160ff021916908360028111156100525761005161005c565b5b021790555061008b565b7f4e487b7100000000000000000000000000000000000000000000000000000000600052602160045260246000fd5b6110228061009a6000396000f3fe608060405234801561001057600080fd5b506004361061007d5760003560e01c8063650271d21161005b578063650271d2146100ee578063d4f77b1c1461010a578063e7dafa6e14610114578063f020044f146101325761007d565b806328ed6e3f146100825780634404a438146100b25780634cdea7d2146100d0575b600080fd5b61009c60048036038101906100979190610b81565b610150565b6040516100a99190610c25565b60405180910390f35b6100ba61017a565b6040516100c79190610c25565b60405180910390f35b6100d861018d565b6040516100e59190610c81565b60405180910390f35b61010860048036038101906101039190610cd5565b6101b3565b005b610112610545565b005b61011c610766565b6040516101299190610c81565b60405180910390f35b61013a61078c565b6040516101479190610d1d565b60405180910390f35b6000816009811061016057600080fd5b60209182820401919006915054906101000a900460ff1681565b600260149054906101000a900460ff1681565b600160009054906101000a900473ffffffffffffffffffffffffffffffffffffffff1681565b600260159054906101000a900460ff16610202576040517f08c379a00000000000000000000000000000000000000000000000000000000081526004016101f990610d95565b60405180910390fd5b60008160ff1610158015610219575060098160ff16105b610258576040517f08c379a000000000000000000000000000000000000000000000000000000000815260040161024f90610e01565b60405180910390fd5b6000600281111561026c5761026b610bae565b5b60008260ff166009811061028357610282610e21565b5b602091828204019190069054906101000a900460ff1660028111156102ab576102aa610bae565b5b146102eb576040517f08c379a00000000000000000000000000000000000000000000000000000000081526004016102e290610e9c565b60405180910390fd5b600160028111156102ff576102fe610bae565b5b600260149054906101000a900460ff16600281111561032157610320610bae565b5b14801561037b5750600160009054906101000a900473ffffffffffffffffffffffffffffffffffffffff1673ffffffffffffffffffffffffffffffffffffffff163373ffffffffffffffffffffffffffffffffffffffff16145b80610411575060028081111561039457610393610bae565b5b600260149054906101000a900460ff1660028111156103b6576103b5610bae565b5b1480156104105750600260009054906101000a900473ffffffffffffffffffffffffffffffffffffffff1673ffffffffffffffffffffffffffffffffffffffff163373ffffffffffffffffffffffffffffffffffffffff16145b5b610450576040517f08c379a000000000000000000000000000000000000000000000000000000000815260040161044790610f08565b60405180910390fd5b600260149054906101000a900460ff1660008260ff166009811061047757610476610e21565b5b602091828204019190066101000a81548160ff021916908360028111156104a1576104a0610bae565b5b02179055506104ae61079f565b156104d3576000600260156101000a81548160ff021916908315150217905550610542565b600160028111156104e7576104e6610bae565b5b600260149054906101000a900460ff16600281111561050957610508610bae565b5b14610515576001610518565b60025b600260146101000a81548160ff0219169083600281111561053c5761053b610bae565b5b02179055505b50565b600073ffffffffffffffffffffffffffffffffffffffff16600160009054906101000a900473ffffffffffffffffffffffffffffffffffffffff1673ffffffffffffffffffffffffffffffffffffffff1614806105f05750600073ffffffffffffffffffffffffffffffffffffffff16600260009054906101000a900473ffffffffffffffffffffffffffffffffffffffff1673ffffffffffffffffffffffffffffffffffffffff16145b61062f576040517f08c379a000000000000000000000000000000000000000000000000000000000815260040161062690610f74565b60405180910390fd5b600073ffffffffffffffffffffffffffffffffffffffff16600160009054906101000a900473ffffffffffffffffffffffffffffffffffffffff1673ffffffffffffffffffffffffffffffffffffffff16036106cb5733600160006101000a81548173ffffffffffffffffffffffffffffffffffffffff021916908373ffffffffffffffffffffffffffffffffffffffff160217905550610764565b600073ffffffffffffffffffffffffffffffffffffffff16600260009054906101000a900473ffffffffffffffffffffffffffffffffffffffff1673ffffffffffffffffffffffffffffffffffffffff16036107635733600260006101000a81548173ffffffffffffffffffffffffffffffffffffffff021916908373ffffffffffffffffffffffffffffffffffffffff1602179055505b5b565b600260009054906101000a900473ffffffffffffffffffffffffffffffffffffffff1681565b600260159054906101000a900460ff1681565b6000806040518061010001604052806040518060600160405280600060ff168152602001600160ff168152602001600260ff1681525081526020016040518060600160405280600360ff168152602001600460ff168152602001600560ff1681525081526020016040518060600160405280600660ff168152602001600760ff168152602001600860ff1681525081526020016040518060600160405280600060ff168152602001600360ff168152602001600660ff1681525081526020016040518060600160405280600160ff168152602001600460ff168152602001600760ff1681525081526020016040518060600160405280600260ff168152602001600560ff168152602001600860ff1681525081526020016040518060600160405280600060ff168152602001600460ff168152602001600860ff1681525081526020016040518060600160405280600260ff168152602001600460ff168152602001600660ff16815250815250905060005b60088160ff161015610b3c576000828260ff166008811061093557610934610e21565b5b60200201519050600060028111156109505761094f610bae565b5b60008260006003811061096657610965610e21565b5b602002015160ff166009811061097f5761097e610e21565b5b602091828204019190069054906101000a900460ff1660028111156109a7576109a6610bae565b5b14158015610a6057506000816001600381106109c6576109c5610e21565b5b602002015160ff16600981106109df576109de610e21565b5b602091828204019190069054906101000a900460ff166002811115610a0757610a06610bae565b5b600082600060038110610a1d57610a1c610e21565b5b602002015160ff1660098110610a3657610a35610e21565b5b602091828204019190069054906101000a900460ff166002811115610a5e57610a5d610bae565b5b145b8015610b175750600081600260038110610a7d57610a7c610e21565b5b602002015160ff1660098110610a9657610a95610e21565b5b602091828204019190069054906101000a900460ff166002811115610abe57610abd610bae565b5b600082600160038110610ad457610ad3610e21565b5b602002015160ff1660098110610aed57610aec610e21565b5b602091828204019190069054906101000a900460ff166002811115610b1557610b14610bae565b5b145b15610b285760019350505050610b43565b508080610b3490610fc3565b915050610911565b5060009150505b90565b600080fd5b6000819050919050565b610b5e81610b4b565b8114610b6957600080fd5b50565b600081359050610b7b81610b55565b92915050565b600060208284031215610b9757610b96610b46565b5b6000610ba584828501610b6c565b91505092915050565b7f4e487b7100000000000000000000000000000000000000000000000000000000600052602160045260246000fd5b60038110610bee57610bed610bae565b5b50565b6000819050610bff82610bdd565b919050565b6000610c0f82610bf1565b9050919050565b610c1f81610c04565b82525050565b6000602082019050610c3a6000830184610c16565b92915050565b600073ffffffffffffffffffffffffffffffffffffffff82169050919050565b6000610c6b82610c40565b9050919050565b610c7b81610c60565b82525050565b6000602082019050610c966000830184610c72565b92915050565b600060ff82169050919050565b610cb281610c9c565b8114610cbd57600080fd5b50565b600081359050610ccf81610ca9565b92915050565b600060208284031215610ceb57610cea610b46565b5b6000610cf984828501610cc0565b91505092915050565b60008115159050919050565b610d1781610d02565b82525050565b6000602082019050610d326000830184610d0e565b92915050565b600082825260208201905092915050565b7f47616d65206973206e6f74206163746976650000000000000000000000000000600082015250565b6000610d7f601283610d38565b9150610d8a82610d49565b602082019050919050565b60006020820190508181036000830152610dae81610d72565b9050919050565b7f496e76616c696420696e64657800000000000000000000000000000000000000600082015250565b6000610deb600d83610d38565b9150610df682610db5565b602082019050919050565b60006020820190508181036000830152610e1a81610dde565b9050919050565b7f4e487b7100000000000000000000000000000000000000000000000000000000600052603260045260246000fd5b7f43656c6c20616c7265616479206f636375706965640000000000000000000000600082015250565b6000610e86601583610d38565b9150610e9182610e50565b602082019050919050565b60006020820190508181036000830152610eb581610e79565b9050919050565b7f4e6f7420796f7572207475726e00000000000000000000000000000000000000600082015250565b6000610ef2600d83610d38565b9150610efd82610ebc565b602082019050919050565b60006020820190508181036000830152610f2181610ee5565b9050919050565b7f47616d652069732066756c6c0000000000000000000000000000000000000000600082015250565b6000610f5e600c83610d38565b9150610f6982610f28565b602082019050919050565b60006020820190508181036000830152610f8d81610f51565b9050919050565b7f4e487b7100000000000000000000000000000000000000000000000000000000600052601160045260246000fd5b6000610fce82610c9c565b915060ff8203610fe157610fe0610f94565b5b60018201905091905056fea264697066735822122074823f00105f07aad0b32df46daec47652cdb323092274a3c55417baeb35e5c464736f6c63430008120033",
  "linkReferences": {},
  "deployedLinkReferences": {}
}